:1000000026C035C034C033C032C001C130C02FC09B
:100010002EC02DC02CC02BC02AC029C028C0000073
:10002000000037000000000038000000000036002B
:10003000020202020202020202020102040810206D
:100040002004100801020000040000000000112438
:100050001FBECFE5D1E0DEBFCDBF20E0A0E6B0E01F
:1000600001C01D92A037B207E1F71BD146C2C8CF2D
:10007000823081F018F4813051F00895833019F006
:10008000843009F008958CB58F7D8CBD08958AB5B4
:100090008F7702C08AB58F7D8ABD0895CF93DF9395
:1000A000282F30E0F901EC5BFF4F8491F901E65C09
:1000B000FF4FD491F901E05DFF4FC491CC2389F04B
:1000C0008111D6DFEC2FF0E0EE0FFF1FE65DFF4F52
:1000D000A591B491EC91ED2381E090E021F480E0D2
:1000E00002C080E090E0DF91CF9108951F93CF93FD
:1000F000DF93282F30E0F901EC5BFF4F8491F90189
:10010000E65CFF4FD491F901E05DFF4FC491CC2331
:10011000C1F0162F8111ACDFEC2FF0E0EE0FFF1FC6
:10012000EC5DFF4FA591B4918FB7F894111105C004
:100130009C91ED2FE095E92302C0EC91ED2BEC931F
:100140008FBFDF91CF911F910895CF93DF9390E000
:10015000FC01E65CFF4F2491FC01E05DFF4F8491C0
:10016000882361F190E0880F991FFC01E25EFF4F48
:10017000C591D491FC01EC5DFF4FA591B491611143
:1001800009C09FB7F8948881209582238883EC91D9
:100190002E230BC0623061F49FB7F8943881822F10
:1001A000809583238883EC912E2B2C939FBF06C0D0
:1001B0008FB7F894E8812E2B28838FBFDF91CF91E2
:1001C00008953FB7F8948091650090916600A091E2
:1001D0006700B091680022B708B601FE05C02F3F46
:1001E00019F00196A11DB11D3FBFBA2FA92F982F5D
:1001F0008827820F911DA11DB11DBC01CD0146E0D4
:10020000660F771F881F991F4A95D1F708951F928F
:100210000F920FB60F9211242F933F938F939F93BA
:10022000AF93BF938091610090916200A0916300B1
:10023000B09164003091600020E3230F2D3720F44B
:100240004096A11DB11D05C023EB230F4196A11DB2
:10025000B11D209360008093610090936200A09391
:100260006300B09364008091650090916600A09156
:100270006700B09168000196A11DB11D80936500D3
:1002800090936600A0936700B0936800BF91AF9110
:100290009F918F913F912F910F900FBE0F901F90C4
:1002A000189578948AB582608ABD8AB581608ABDC6
:1002B00083B7826083BF83B7816083BF89B7826061
:1002C00089BF80B7826080BF3298319A309A379A5E
:1002D0008CB580648CBD61E083E037DF60E083E053
:1002E00005DF61E080E031DF60E080E0FFDE60E0BC
:1002F00081E02BDF60E083E0F9DE10926F00109266
:100300006E0000E010E092E0E92EF12CC3E0D0E0B6
:10031000CC24C394D12C55DF2B013C0184E6882EDC
:10032000912CA12CB12C4DDFDC01CB018419950956
:10033000A609B709883E9340A105B10558F021E010
:10034000821A9108A108B10888EE480E83E0581E71
:10035000611C711C81149104A104B10421F78091E6
:100360006E0090916F008130910501F11CF4892B92
:1003700041F0B1C08230910571F1039709F487C053
:10038000AAC081E08BDE8130910509F0A4C02091E4
:100390006C0030916D00243131050CF0A2C02F5F4C
:1003A0003F4F30936D0020936C0095C061E080E07A
:1003B0009DDE10926D0010926C0010926B001092F6
:1003C0006A0081E06BDE892B09F085C0F0926F0036
:1003D000E0926E0080C060E080E088DEA0906C005B
:1003E000B0906D008FEFA81AB80AB0926D00A0927D
:1003F0006C0081E053DE20916900892B49F52223AE
:10040000B9F01092690080916A0090916B009C0194
:100410002F5F3F4F30936B0020936A00059741F4A4
:1004200010926D0010926C00D0936F00C0936E001C
:1004300080916C0090916D00883C91050CF44BC04C
:1004400060E083E053DE10926F0010926E003FC0B8
:1004500088ECA816B10424F0D0926F00C0926E0010
:10046000211139C081E08093690080916A009091E8
:100470006B009C012F5F3F4F30936B0020936A000D
:10048000059749F5D0936F00C0936E0024C080E0BB
:1004900005DE61E0892B09F060E080E027DE81E085
:1004A000FDDD8130910599F420916C0030916D0053
:1004B000A9014F5F5F4F50936D0040936C0024364D
:1004C00031054CF090936F0080936E0004C0109241
:1004D0006D0010926C000115110509F41CCF90DD20
:1004E0001ACF10926D0010926C0090936F00809361
:0E04F0006E0061E083E0FADDEECFF894FFCFFE
:00000001FF
